S01E00004F76696E67315F54544B343135355F4731375F4831372E7372656394
S11300000C9438000C9455000C9455000C94550035
S11300100C9455000C9455000C9455000C94550008
S11300200C9455000C9455000C9455000C945500F8
S11300300C9455000C9455000C9455000C945500E8
S11300400C9455000C9455000C9455000C945500D8
S11300500C9455000C9455000C9455000C945500C8
S11300600C9455000C9455000C9455000C945500B8
S113007011241FBECFEFD4E0DEBFCDBF11E0A0E05E
S1130080B1E0E8ECF4E002C005900D92A032B107B3
S1130090D9F721E0A0E2B1E001C01D92AA32B20773
S11300A0E1F70E9469000C9462020C94000021E0C4
S11300B030E0F90102C0EE0FFF1F6A95E2F7BF01BD
S11300C0FC012081622B608381E0423008F080E0F3
S11300D008958FE190E00E9485008FEF8ABB41E094
S11300E064E08BE390E00E9457000E94900086E059
S11300F091E00E94EB00FBCF5D9BFECF8CB908958D
S11301005F9BFECF8CB190E0089590BD89B988E1E2
S11301108AB960E870E08CE790E00E94A00008953E
S1130120CF9382E191E00E94EB000E948000C82FEF
S11301308823D9F30E947C00C935B9F7CF9108957B
S11301400F931F93CF93DF93EC018B01009731F44E
S11301506115710519F480E090E038C06EE070E03C
S113016081E090E00E941801FC010097A1F380E86F
S113017083830115110571F01387028781E8838356
S11301808091200190912101892B21F4F093210188
S1130190E09320012097C9F0D187C08783818260D2
S11301A083838091220190912301892B71F4F09330
S11301B02301E09322018091240190912501892B50
S11301C021F4F0932501E0932401CF01DF91CF9135
S11301D01F910F9108950F931F93CF93DF93E09195
S11301E02201F0912301238121FF1BC0EC0100E0D7
S11301F010E089916091220170912301DB0118962E
S1130200ED91FC911997882331F00995892B89F395
S11302100FEF1FEFEECF8AE00995892B11F4C80187
S113022002C08FEF9FEFDF91CF911F910F9108953F
S11302300F931F93CF93DF93869F8001879F100DA9
S1130240969F100D1124C8010E943401EC010097FF
S113025029F0A80160E070E00E945B02CE01DF910A
S1130260CF911F910F910895CF93DF938230910521
S113027010F482E090E0E0912801F091290120E05F
S113028030E0A0E0B0E0309739F140815181481767
S11302905907B8F04817590771F482819381109770
S11302A029F013969C938E9312972CC09093290156
S11302B08093280127C02115310531F042175307D7
S11302C018F0A901DB0101C0EF019A01BD01DF01B2
S11302D00280F381E02DD7CF21153105F9F0281BD9
S11302E0390B2430310580F48A819B8161157105B5
S11302F021F0FB019383828304C0909329018093AE
S11303002801FE01329644C0FE01E20FF31F8193DF
S1130310919322503109398328833AC020912601D0
S113032030912701232B41F42091020130910301E4
S1130330309327012093260120910001309101017F
S11303402115310541F42DB73EB740910401509178
S11303500501241B350BE0912601F0912701E217DA
S1130360F307A0F42E1B3F0B2817390778F0AC01D4
S11303704E5F5F4F2417350748F04E0F5F1F5093B1
S11303802701409326018193919302C0E0E0F0E0BD
S1130390CF01DF91CF910895CF93DF93009709F4B4
S11303A087C0FC01329713821282C0912801D09138
S11303B02901209781F420813181280F391F8091F0
S11303C02601909127018217930779F5F09327016D
S11303D0E09326016DC0DE0120E030E0AE17BF07D8
S11303E050F412964D915C9113979D01411551055E
S11303F009F1DA01F3CFB383A28340815181840FE1
S1130400951F8A179B0771F48D919C911197840F06
S1130410951F02969183808312968D919C911397D8
S1130420938382832115310529F4F0932901E09304
S113043028013EC0D9011396FC93EE9312974D9177
S11304405D91A40FB51FEA17FB0779F480819181B0
S1130450840F951F0296D90111969C938E938281E5
S1130460938113969C938E931297E0E0F0E08A8137
S11304709B81009719F0FE01EC01F9CFCE010296A1
S113048028813981820F931F209126013091270101
S11304902817390769F4309729F41092290110922A
S11304A0280102C013821282D0932701C09326012F
S11304B0DF91CF910895DC0101C06D93415050400C
S10B04C0E0F70895F894FFCF62
S11304C800002A012000706C616365686F6C6465C4
S11304D872007475726E206F66663F20592F4E0045
S9030000FC
